{
  "_format": "hh-sol-artifact-1",
  "contractName": "AuditAnchor",
  "sourceName": "contracts/AuditAnchor.sol",
  "abi": [
    {
      "inputs": [],
      "stateMutability": "nonpayable",
      "type": "constructor"
    },
    {
      "anonymous": false,
      "inputs": [
        {
          "indexed": true,
          "internalType": "uint256",
          "name": "anchorId",
          "type": "uint256"
        },
        {
          "indexed": true,
          "internalType": "uint256",
          "name": "fromBlockId",
          "type": "uint256"
        },
        {
          "indexed": true,
          "internalType": "uint256",
          "name": "toBlockId",
          "type": "uint256"
        },
        {
          "indexed": false,
          "internalType": "bytes32",
          "name": "chainHash",
          "type": "bytes32"
        },
        {
          "indexed": false,
          "internalType": "bytes32",
          "name": "payloadRoot",
          "type": "bytes32"
        },
        {
          "indexed": false,
          "internalType": "address",
          "name": "submitter",
          "type": "address"
        }
      ],
      "name": "AnchorCommitted",
      "type": "event"
    },
    {
      "anonymous": false,
      "inputs": [
        {
          "indexed": true,
          "internalType": "address",
          "name": "previous",
          "type": "address"
        },
        {
          "indexed": true,
          "internalType": "address",
          "name": "next",
          "type": "address"
        }
      ],
      "name": "OwnershipTransferred",
      "type": "event"
    },
    {
      "anonymous": false,
      "inputs": [
        {
          "indexed": true,
          "internalType": "address",
          "name": "who",
          "type": "address"
        }
      ],
      "name": "WriterAdded",
      "type": "event"
    },
    {
      "anonymous": false,
      "inputs": [
        {
          "indexed": true,
          "internalType": "address",
          "name": "who",
          "type": "address"
        }
      ],
      "name": "WriterRemoved",
      "type": "event"
    },
    {
      "inputs": [
        {
          "internalType": "address",
          "name": "who",
          "type": "address"
        }
      ],
      "name": "addWriter",
      "outputs": [],
      "stateMutability": "nonpayable",
      "type": "function"
    },
    {
      "inputs": [],
      "name": "anchorCount",
      "outputs": [
        {
          "internalType": "uint256",
          "name": "",
          "type": "uint256"
        }
      ],
      "stateMutability": "view",
      "type": "function"
    },
    {
      "inputs": [
        {
          "internalType": "uint256",
          "name": "fromBlockId",
          "type": "uint256"
        },
        {
          "internalType": "uint256",
          "name": "toBlockId",
          "type": "uint256"
        },
        {
          "internalType": "bytes32",
          "name": "chainHash",
          "type": "bytes32"
        },
        {
          "internalType": "bytes32",
          "name": "payloadRoot",
          "type": "bytes32"
        }
      ],
      "name": "commitAnchor",
      "outputs": [
        {
          "internalType": "uint256",
          "name": "anchorId",
          "type": "uint256"
        }
      ],
      "stateMutability": "nonpayable",
      "type": "function"
    },
    {
      "inputs": [
        {
          "internalType": "uint256",
          "name": "anchorId",
          "type": "uint256"
        }
      ],
      "name": "getAnchor",
      "outputs": [
        {
          "components": [
            {
              "internalType": "uint256",
              "name": "indexInLedger",
              "type": "uint256"
            },
            {
              "internalType": "uint256",
              "name": "fromBlockId",
              "type": "uint256"
            },
            {
              "internalType": "bytes32",
              "name": "chainHash",
              "type": "bytes32"
            },
            {
              "internalType": "bytes32",
              "name": "payloadRoot",
              "type": "bytes32"
            },
            {
              "internalType": "uint64",
              "name": "committedAt",
              "type": "uint64"
            },
            {
              "internalType": "address",
              "name": "submitter",
              "type": "address"
            }
          ],
          "internalType": "struct AuditAnchor.Anchor",
          "name": "",
          "type": "tuple"
        }
      ],
      "stateMutability": "view",
      "type": "function"
    },
    {
      "inputs": [],
      "name": "latestAnchor",
      "outputs": [
        {
          "components": [
            {
              "internalType": "uint256",
              "name": "indexInLedger",
              "type": "uint256"
            },
            {
              "internalType": "uint256",
              "name": "fromBlockId",
              "type": "uint256"
            },
            {
              "internalType": "bytes32",
              "name": "chainHash",
              "type": "bytes32"
            },
            {
              "internalType": "bytes32",
              "name": "payloadRoot",
              "type": "bytes32"
            },
            {
              "internalType": "uint64",
              "name": "committedAt",
              "type": "uint64"
            },
            {
              "internalType": "address",
              "name": "submitter",
              "type": "address"
            }
          ],
          "internalType": "struct AuditAnchor.Anchor",
          "name": "",
          "type": "tuple"
        }
      ],
      "stateMutability": "view",
      "type": "function"
    },
    {
      "inputs": [],
      "name": "owner",
      "outputs": [
        {
          "internalType": "address",
          "name": "",
          "type": "address"
        }
      ],
      "stateMutability": "view",
      "type": "function"
    },
    {
      "inputs": [
        {
          "internalType": "address",
          "name": "who",
          "type": "address"
        }
      ],
      "name": "removeWriter",
      "outputs": [],
      "stateMutability": "nonpayable",
      "type": "function"
    },
    {
      "inputs": [
        {
          "internalType": "address",
          "name": "next",
          "type": "address"
        }
      ],
      "name": "transferOwnership",
      "outputs": [],
      "stateMutability": "nonpayable",
      "type": "function"
    },
    {
      "inputs": [
        {
          "internalType": "uint256",
          "name": "anchorId",
          "type": "uint256"
        },
        {
          "internalType": "bytes32",
          "name": "chainHash",
          "type": "bytes32"
        }
      ],
      "name": "verify",
      "outputs": [
        {
          "internalType": "bool",
          "name": "",
          "type": "bool"
        }
      ],
      "stateMutability": "view",
      "type": "function"
    },
    {
      "inputs": [
        {
          "internalType": "address",
          "name": "",
          "type": "address"
        }
      ],
      "name": "writers",
      "outputs": [
        {
          "internalType": "bool",
          "name": "",
          "type": "bool"
        }
      ],
      "stateMutability": "view",
      "type": "function"
    }
  ],
  "bytecode": "0x608060405234801561001057600080fd5b50600080546001600160a01b031916339081178255808252600160208190526040808420805460ff1916909217909155519091907f8be0079c531659141344cd1fd0a4f28419497f9722a3daafe3b4186f6b6457e0908290a360405133907f6ff3aa2ea7b53070f6d9d07a445d338d89e8edef44250ffa8be19f53910d4a2e90600090a2610bbd806100a36000396000f3fe608060405234801561001057600080fd5b506004361061009e5760003560e01c80635356dddc116100665780635356dddc146101695780638da5cb5b1461017e5780638e7e80a2146101a9578063da2824a8146101cc578063f2fde38b146101df57600080fd5b80631cc2ad13146100a35780631d97ce31146100c9578063245c88d8146100ec57806334f96c8c1461014e5780634c7df18f14610156575b600080fd5b6100b66100b1366004610a68565b6101f2565b6040519081526020015b60405180910390f35b6100dc6100d7366004610a9a565b61051c565b60405190151581526020016100c0565b6100f4610560565b6040516100c091908151815260208083015190820152604080830151908201526060808301519082015260808083015167ffffffffffffffff169082015260a0918201516001600160a01b03169181019190915260c00190565b6002546100b6565b6100f4610164366004610abc565b610672565b61017c610177366004610ad5565b61077a565b005b600054610191906001600160a01b031681565b6040516001600160a01b0390911681526020016100c0565b6100dc6101b7366004610ad5565b60016020526000908152604090205460ff1681565b61017c6101da366004610ad5565b610855565b61017c6101ed366004610ad5565b61098d565b3360009081526001602052604081205460ff166102565760405162461bcd60e51b815260206004820152601760248201527f4175646974416e63686f723a206e6f742077726974657200000000000000000060448201526064015b60405180910390fd5b8484101561029f5760405162461bcd60e51b81526020600482015260166024820152754175646974416e63686f723a206261642072616e676560501b604482015260640161024d565b826102ec5760405162461bcd60e51b815260206004820152601c60248201527f4175646974416e63686f723a20656d70747920636861696e4861736800000000604482015260640161024d565b60025415610390576002805461030490600190610b1b565b8154811061031457610314610b2e565b90600052602060002090600502016000015460016103329190610b44565b85146103905760405162461bcd60e51b815260206004820152602760248201527f4175646974416e63686f723a206e6f6e2d636f6e746967756f75732066726f6d604482015266109b1bd8dad25960ca1b606482015260840161024d565b50600280546040805160c0810182528681526020808201898152828401888152606080850189815267ffffffffffffffff428116608088019081523360a0890181815260018c018d5560009c909c52975160058b027f405787fa12a823e0f2b7631cc41b3ba8828b3321ca811111fa75cd3aa3bb5ace81019190915595517f405787fa12a823e0f2b7631cc41b3ba8828b3321ca811111fa75cd3aa3bb5acf87015593517f405787fa12a823e0f2b7631cc41b3ba8828b3321ca811111fa75cd3aa3bb5ad086015590517f405787fa12a823e0f2b7631cc41b3ba8828b3321ca811111fa75cd3aa3bb5ad185015591517f405787fa12a823e0f2b7631cc41b3ba8828b3321ca811111fa75cd3aa3bb5ad2909301805498516001600160a01b0316600160401b026001600160e01b031990991693909216929092179690961790955582518781529081018690529182015290918591879184917f95f0d07db6f8b0e1af81d5d9dcb7f175af87e8ab80d66ce28a9966f31ae3ecb9910160405180910390a4949350505050565b60025460009083106105305750600061055a565b816002848154811061054457610544610b2e565b9060005260206000209060050201600201541490505b92915050565b6040805160c081018252600080825260208201819052918101829052606081018290526080810182905260a08101919091526002546105e15760405162461bcd60e51b815260206004820152601760248201527f4175646974416e63686f723a206e6f20616e63686f7273000000000000000000604482015260640161024d565b600280546105f190600190610b1b565b8154811061060157610601610b2e565b60009182526020918290206040805160c0810182526005909302909101805483526001810154938301939093526002830154908201526003820154606082015260049091015467ffffffffffffffff811660808301526001600160a01b03600160401b9091041660a0820152919050565b6040805160c081018252600080825260208201819052918101829052606081018290526080810182905260a081019190915260025482106106f55760405162461bcd60e51b815260206004820152601960248201527f4175646974416e63686f723a206f7574206f662072616e676500000000000000604482015260640161024d565b6002828154811061070857610708610b2e565b60009182526020918290206040805160c0810182526005909302909101805483526001810154938301939093526002830154908201526003820154606082015260049091015467ffffffffffffffff811660808301526001600160a01b03600160401b9091041660a082015292915050565b6000546001600160a01b031633146107a45760405162461bcd60e51b815260040161024d90610b57565b6001600160a01b03811660009081526001602052604090205460ff1661080c5760405162461bcd60e51b815260206004820152601960248201527f4175646974416e63686f723a206e6f7420612077726974657200000000000000604482015260640161024d565b6001600160a01b038116600081815260016020526040808220805460ff19169055517f86e5bbceda94081c32220d685f37cc4e3ea7bb0be2dfbf0cb703579505a5390e9190a250565b6000546001600160a01b0316331461087f5760405162461bcd60e51b815260040161024d90610b57565b6001600160a01b0381166108d55760405162461bcd60e51b815260206004820152601860248201527f4175646974416e63686f723a207a65726f207772697465720000000000000000604482015260640161024d565b6001600160a01b03811660009081526001602052604090205460ff161561093e5760405162461bcd60e51b815260206004820152601b60248201527f4175646974416e63686f723a20616c7265616479207772697465720000000000604482015260640161024d565b6001600160a01b0381166000818152600160208190526040808320805460ff1916909217909155517f6ff3aa2ea7b53070f6d9d07a445d338d89e8edef44250ffa8be19f53910d4a2e9190a250565b6000546001600160a01b031633146109b75760405162461bcd60e51b815260040161024d90610b57565b6001600160a01b038116610a0d5760405162461bcd60e51b815260206004820152601760248201527f4175646974416e63686f723a207a65726f206f776e6572000000000000000000604482015260640161024d565b600080546040516001600160a01b03808516939216917f8be0079c531659141344cd1fd0a4f28419497f9722a3daafe3b4186f6b6457e091a3600080546001600160a01b0319166001600160a01b0392909216919091179055565b60008060008060808587031215610a7e57600080fd5b5050823594602084013594506040840135936060013592509050565b60008060408385031215610aad57600080fd5b50508035926020909101359150565b600060208284031215610ace57600080fd5b5035919050565b600060208284031215610ae757600080fd5b81356001600160a01b0381168114610afe57600080fd5b9392505050565b634e487b7160e01b600052601160045260246000fd5b8181038181111561055a5761055a610b05565b634e487b7160e01b600052603260045260246000fd5b8082018082111561055a5761055a610b05565b60208082526016908201527520bab234ba20b731b437b91d103737ba1037bbb732b960511b60408201526060019056fea26469706673582212207b87553ee00fd553c0c86e1a6f9f12e420e5ba78b0668766eae9490a7a81f4fb64736f6c63430008180033",
  "linkReferences": {},
  "deployedLinkReferences": {}
}