{"contracts/AuditAnchor.sol":{"AuditAnchor":{"abi":[{"inputs":[],"stateMutability":"nonpayable","type":"constructor"},{"anonymous":false,"inputs":[{"indexed":true,"internalType":"uint256","name":"anchorId","type":"uint256"},{"indexed":true,"internalType":"uint256","name":"fromBlockId","type":"uint256"},{"indexed":true,"internalType":"uint256","name":"toBlockId","type":"uint256"},{"indexed":false,"internalType":"bytes32","name":"chainHash","type":"bytes32"},{"indexed":false,"internalType":"bytes32","name":"payloadRoot","type":"bytes32"},{"indexed":false,"internalType":"address","name":"submitter","type":"address"}],"name":"AnchorCommitted","type":"event"},{"anonymous":false,"inputs":[{"indexed":true,"internalType":"address","name":"previous","type":"address"},{"indexed":true,"internalType":"address","name":"next","type":"address"}],"name":"OwnershipTransferred","type":"event"},{"anonymous":false,"inputs":[{"indexed":true,"internalType":"address","name":"who","type":"address"}],"name":"WriterAdded","type":"event"},{"anonymous":false,"inputs":[{"indexed":true,"internalType":"address","name":"who","type":"address"}],"name":"WriterRemoved","type":"event"},{"inputs":[{"internalType":"address","name":"who","type":"address"}],"name":"addWriter","outputs":[],"stateMutability":"nonpayable","type":"function"},{"inputs":[],"name":"anchorCount","outputs":[{"internalType":"uint256","name":"","type":"uint256"}],"stateMutability":"view","type":"function"},{"inputs":[{"internalType":"uint256","name":"fromBlockId","type":"uint256"},{"internalType":"uint256","name":"toBlockId","type":"uint256"},{"internalType":"bytes32","name":"chainHash","type":"bytes32"},{"internalType":"bytes32","name":"payloadRoot","type":"bytes32"}],"name":"commitAnchor","outputs":[{"internalType":"uint256","name":"anchorId","type":"uint256"}],"stateMutability":"nonpayable","type":"function"},{"inputs":[{"internalType":"uint256","name":"anchorId","type":"uint256"}],"name":"getAnchor","outputs":[{"components":[{"internalType":"uint256","name":"indexInLedger","type":"uint256"},{"internalType":"uint256","name":"fromBlockId","type":"uint256"},{"internalType":"bytes32","name":"chainHash","type":"bytes32"},{"internalType":"bytes32","name":"payloadRoot","type":"bytes32"},{"internalType":"uint64","name":"committedAt","type":"uint64"},{"internalType":"address","name":"submitter","type":"address"}],"internalType":"struct AuditAnchor.Anchor","name":"","type":"tuple"}],"stateMutability":"view","type":"function"},{"inputs":[],"name":"latestAnchor","outputs":[{"components":[{"internalType":"uint256","name":"indexInLedger","type":"uint256"},{"internalType":"uint256","name":"fromBlockId","type":"uint256"},{"internalType":"bytes32","name":"chainHash","type":"bytes32"},{"internalType":"bytes32","name":"payloadRoot","type":"bytes32"},{"internalType":"uint64","name":"committedAt","type":"uint64"},{"internalType":"address","name":"submitter","type":"address"}],"internalType":"struct AuditAnchor.Anchor","name":"","type":"tuple"}],"stateMutability":"view","type":"function"},{"inputs":[],"name":"owner","outputs":[{"internalType":"address","name":"","type":"address"}],"stateMutability":"view","type":"function"},{"inputs":[{"internalType":"address","name":"who","type":"address"}],"name":"removeWriter","outputs":[],"stateMutability":"nonpayable","type":"function"},{"inputs":[{"internalType":"address","name":"next","type":"address"}],"name":"transferOwnership","outputs":[],"stateMutability":"nonpayable","type":"function"},{"inputs":[{"internalType":"uint256","name":"anchorId","type":"uint256"},{"internalType":"bytes32","name":"chainHash","type":"bytes32"}],"name":"verify","outputs":[{"internalType":"bool","name":"","type":"bool"}],"stateMutability":"view","type":"function"},{"inputs":[{"internalType":"address","name":"","type":"address"}],"name":"writers","outputs":[{"internalType":"bool","name":"","type":"bool"}],"stateMutability":"view","type":"function"}],"evm":{"bytecode":{"linkReferences":{},"object":"608060405234801561001057600080fd5b50600080546001600160a01b031916339081178255808252600160208190526040808420805460ff1916909217909155519091907f8be0079c531659141344cd1fd0a4f28419497f9722a3daafe3b4186f6b6457e0908290a360405133907f6ff3aa2ea7b53070f6d9d07a445d338d89e8edef44250ffa8be19f53910d4a2e90600090a2610bbd806100a36000396000f3fe608060405234801561001057600080fd5b506004361061009e5760003560e01c80635356dddc116100665780635356dddc146101695780638da5cb5b1461017e5780638e7e80a2146101a9578063da2824a8146101cc578063f2fde38b146101df57600080fd5b80631cc2ad13146100a35780631d97ce31146100c9578063245c88d8146100ec57806334f96c8c1461014e5780634c7df18f14610156575b600080fd5b6100b66100b1366004610a68565b6101f2565b6040519081526020015b60405180910390f35b6100dc6100d7366004610a9a565b61051c565b60405190151581526020016100c0565b6100f4610560565b6040516100c091908151815260208083015190820152604080830151908201526060808301519082015260808083015167ffffffffffffffff169082015260a0918201516001600160a01b03169181019190915260c00190565b6002546100b6565b6100f4610164366004610abc565b610672565b61017c610177366004610ad5565b61077a565b005b600054610191906001600160a01b031681565b6040516001600160a01b0390911681526020016100c0565b6100dc6101b7366004610ad5565b60016020526000908152604090205460ff1681565b61017c6101da366004610ad5565b610855565b61017c6101ed366004610ad5565b61098d565b3360009081526001602052604081205460ff166102565760405162461bcd60e51b815260206004820152601760248201527f4175646974416e63686f723a206e6f742077726974657200000000000000000060448201526064015b60405180910390fd5b8484101561029f5760405162461bcd60e51b81526020600482015260166024820152754175646974416e63686f723a206261642072616e676560501b604482015260640161024d565b826102ec5760405162461bcd60e51b815260206004820152601c60248201527f4175646974416e63686f723a20656d70747920636861696e4861736800000000604482015260640161024d565b60025415610390576002805461030490600190610b1b565b8154811061031457610314610b2e565b90600052602060002090600502016000015460016103329190610b44565b85146103905760405162461bcd60e51b815260206004820152602760248201527f4175646974416e63686f723a206e6f6e2d636f6e746967756f75732066726f6d604482015266109b1bd8dad25960ca1b606482015260840161024d565b50600280546040805160c0810182528681526020808201898152828401888152606080850189815267ffffffffffffffff428116608088019081523360a0890181815260018c018d5560009c909c52975160058b027f405787fa12a823e0f2b7631cc41b3ba8828b3321ca811111fa75cd3aa3bb5ace81019190915595517f405787fa12a823e0f2b7631cc41b3ba8828b3321ca811111fa75cd3aa3bb5acf87015593517f405787fa12a823e0f2b7631cc41b3ba8828b3321ca811111fa75cd3aa3bb5ad086015590517f405787fa12a823e0f2b7631cc41b3ba8828b3321ca811111fa75cd3aa3bb5ad185015591517f405787fa12a823e0f2b7631cc41b3ba8828b3321ca811111fa75cd3aa3bb5ad2909301805498516001600160a01b0316600160401b026001600160e01b031990991693909216929092179690961790955582518781529081018690529182015290918591879184917f95f0d07db6f8b0e1af81d5d9dcb7f175af87e8ab80d66ce28a9966f31ae3ecb9910160405180910390a4949350505050565b60025460009083106105305750600061055a565b816002848154811061054457610544610b2e565b9060005260206000209060050201600201541490505b92915050565b6040805160c081018252600080825260208201819052918101829052606081018290526080810182905260a08101919091526002546105e15760405162461bcd60e51b815260206004820152601760248201527f4175646974416e63686f723a206e6f20616e63686f7273000000000000000000604482015260640161024d565b600280546105f190600190610b1b565b8154811061060157610601610b2e565b60009182526020918290206040805160c0810182526005909302909101805483526001810154938301939093526002830154908201526003820154606082015260049091015467ffffffffffffffff811660808301526001600160a01b03600160401b9091041660a0820152919050565b6040805160c081018252600080825260208201819052918101829052606081018290526080810182905260a081019190915260025482106106f55760405162461bcd60e51b815260206004820152601960248201527f4175646974416e63686f723a206f7574206f662072616e676500000000000000604482015260640161024d565b6002828154811061070857610708610b2e565b60009182526020918290206040805160c0810182526005909302909101805483526001810154938301939093526002830154908201526003820154606082015260049091015467ffffffffffffffff811660808301526001600160a01b03600160401b9091041660a082015292915050565b6000546001600160a01b031633146107a45760405162461bcd60e51b815260040161024d90610b57565b6001600160a01b03811660009081526001602052604090205460ff1661080c5760405162461bcd60e51b815260206004820152601960248201527f4175646974416e63686f723a206e6f7420612077726974657200000000000000604482015260640161024d565b6001600160a01b038116600081815260016020526040808220805460ff19169055517f86e5bbceda94081c32220d685f37cc4e3ea7bb0be2dfbf0cb703579505a5390e9190a250565b6000546001600160a01b0316331461087f5760405162461bcd60e51b815260040161024d90610b57565b6001600160a01b0381166108d55760405162461bcd60e51b815260206004820152601860248201527f4175646974416e63686f723a207a65726f207772697465720000000000000000604482015260640161024d565b6001600160a01b03811660009081526001602052604090205460ff161561093e5760405162461bcd60e51b815260206004820152601b60248201527f4175646974416e63686f723a20616c7265616479207772697465720000000000604482015260640161024d565b6001600160a01b0381166000818152600160208190526040808320805460ff1916909217909155517f6ff3aa2ea7b53070f6d9d07a445d338d89e8edef44250ffa8be19f53910d4a2e9190a250565b6000546001600160a01b031633146109b75760405162461bcd60e51b815260040161024d90610b57565b6001600160a01b038116610a0d5760405162461bcd60e51b815260206004820152601760248201527f4175646974416e63686f723a207a65726f206f776e6572000000000000000000604482015260640161024d565b600080546040516001600160a01b03808516939216917f8be0079c531659141344cd1fd0a4f28419497f9722a3daafe3b4186f6b6457e091a3600080546001600160a01b0319166001600160a01b0392909216919091179055565b60008060008060808587031215610a7e57600080fd5b5050823594602084013594506040840135936060013592509050565b60008060408385031215610aad57600080fd5b50508035926020909101359150565b600060208284031215610ace57600080fd5b5035919050565b600060208284031215610ae757600080fd5b81356001600160a01b0381168114610afe57600080fd5b9392505050565b634e487b7160e01b600052601160045260246000fd5b8181038181111561055a5761055a610b05565b634e487b7160e01b600052603260045260246000fd5b8082018082111561055a5761055a610b05565b60208082526016908201527520bab234ba20b731b437b91d103737ba1037bbb732b960511b60408201526060019056fea26469706673582212207b87553ee00fd553c0c86e1a6f9f12e420e5ba78b0668766eae9490a7a81f4fb64736f6c63430008180033","opcodes":"PUSH1 0x80 PUSH1 0x40 MSTORE CALLVALUE DUP1 ISZERO PUSH2 0x10 JUMPI PUSH1 0x0 DUP1 REVERT JUMPDEST POP PUSH1 0x0 DUP1 SLOAD PUSH1 0x1 PUSH1 0x1 PUSH1 0xA0 SHL SUB NOT AND CALLER SWAP1 DUP2 OR DUP3 SSTORE DUP1 DUP3 MSTORE PUSH1 0x1 PUSH1 0x20 DUP2 SWAP1 MSTORE PUSH1 0x40 DUP1 DUP5 KECCAK256 DUP1 SLOAD PUSH1 0xFF NOT AND SWAP1 SWAP3 OR SWAP1 SWAP2 SSTORE MLOAD SWAP1 SWAP2 SWAP1 PUSH32 0x8BE0079C531659141344CD1FD0A4F28419497F9722A3DAAFE3B4186F6B6457E0 SWAP1 DUP3 SWAP1 LOG3 PUSH1 0x40 MLOAD CALLER SWAP1 PUSH32 0x6FF3AA2EA7B53070F6D9D07A445D338D89E8EDEF44250FFA8BE19F53910D4A2E SWAP1 PUSH1 0x0 SWAP1 LOG2 PUSH2 0xBBD DUP1 PUSH2 0xA3 PUSH1 0x0 CODECOPY PUSH1 0x0 RETURN INVALID PUSH1 0x80 PUSH1 0x40 MSTORE CALLVALUE DUP1 ISZERO PUSH2 0x10 JUMPI PUSH1 0x0 DUP1 REVERT JUMPDEST POP PUSH1 0x4 CALLDATASIZE LT PUSH2 0x9E JUMPI PUSH1 0x0 CALLDATALOAD PUSH1 0xE0 SHR DUP1 PUSH4 0x5356DDDC GT PUSH2 0x66 JUMPI DUP1 PUSH4 0x5356DDDC EQ PUSH2 0x169 JUMPI DUP1 PUSH4 0x8DA5CB5B EQ PUSH2 0x17E JUMPI DUP1 PUSH4 0x8E7E80A2 EQ PUSH2 0x1A9 JUMPI DUP1 PUSH4 0xDA2824A8 EQ PUSH2 0x1CC JUMPI DUP1 PUSH4 0xF2FDE38B EQ PUSH2 0x1DF JUMPI PUSH1 0x0 DUP1 REVERT JUMPDEST DUP1 PUSH4 0x1CC2AD13 EQ PUSH2 0xA3 JUMPI DUP1 PUSH4 0x1D97CE31 EQ PUSH2 0xC9 JUMPI DUP1 PUSH4 0x245C88D8 EQ PUSH2 0xEC JUMPI DUP1 PUSH4 0x34F96C8C EQ PUSH2 0x14E JUMPI DUP1 PUSH4 0x4C7DF18F EQ PUSH2 0x156 JUMPI JUMPDEST PUSH1 0x0 DUP1 REVERT JUMPDEST PUSH2 0xB6 PUSH2 0xB1 CALLDATASIZE PUSH1 0x4 PUSH2 0xA68 JUMP JUMPDEST PUSH2 0x1F2 JUMP JUMPDEST PUSH1 0x40 MLOAD SWAP1 DUP2 MSTORE PUSH1 0x20 ADD JUMPDEST PUSH1 0x40 MLOAD DUP1 SWAP2 SUB SWAP1 RETURN JUMPDEST PUSH2 0xDC PUSH2 0xD7 CALLDATASIZE PUSH1 0x4 PUSH2 0xA9A JUMP JUMPDEST PUSH2 0x51C JUMP JUMPDEST PUSH1 0x40 MLOAD SWAP1 ISZERO ISZERO DUP2 MSTORE PUSH1 0x20 ADD PUSH2 0xC0 JUMP JUMPDEST PUSH2 0xF4 PUSH2 0x560 JUMP JUMPDEST PUSH1 0x40 MLOAD PUSH2 0xC0 SWAP2 SWAP1 DUP2 MLOAD DUP2 MSTORE PUSH1 0x20 DUP1 DUP4 ADD MLOAD SWAP1 DUP3 ADD MSTORE PUSH1 0x40 DUP1 DUP4 ADD MLOAD SWAP1 DUP3 ADD MSTORE PUSH1 0x60 DUP1 DUP4 ADD MLOAD SWAP1 DUP3 ADD MSTORE PUSH1 0x80 DUP1 DUP4 ADD MLOAD PUSH8 0xFFFFFFFFFFFFFFFF AND SWAP1 DUP3 ADD MSTORE PUSH1 0xA0 SWAP2 DUP3 ADD MLOAD PUSH1 0x1 PUSH1 0x1 PUSH1 0xA0 SHL SUB AND SWAP2 DUP2 ADD SWAP2 SWAP1 SWAP2 MSTORE PUSH1 0xC0 ADD SWAP1 JUMP JUMPDEST PUSH1 0x2 SLOAD PUSH2 0xB6 JUMP JUMPDEST PUSH2 0xF4 PUSH2 0x164 CALLDATASIZE PUSH1 0x4 PUSH2 0xABC JUMP JUMPDEST PUSH2 0x672 JUMP JUMPDEST PUSH2 0x17C PUSH2 0x177 CALLDATASIZE PUSH1 0x4 PUSH2 0xAD5 JUMP JUMPDEST PUSH2 0x77A JUMP JUMPDEST STOP JUMPDEST PUSH1 0x0 SLOAD PUSH2 0x191 SWAP1 PUSH1 0x1 PUSH1 0x1 PUSH1 0xA0 SHL SUB AND DUP2 JUMP JUMPDEST PUSH1 0x40 MLOAD PUSH1 0x1 PUSH1 0x1 PUSH1 0xA0 SHL SUB SWAP1 SWAP2 AND DUP2 MSTORE PUSH1 0x20 ADD PUSH2 0xC0 JUMP JUMPDEST PUSH2 0xDC PUSH2 0x1B7 CALLDATASIZE PUSH1 0x4 PUSH2 0xAD5 JUMP JUMPDEST PUSH1 0x1 PUSH1 0x20 MSTORE PUSH1 0x0 SWAP1 DUP2 MSTORE PUSH1 0x40 SWAP1 KECCAK256 SLOAD PUSH1 0xFF AND DUP2 JUMP JUMPDEST PUSH2 0x17C PUSH2 0x1DA CALLDATASIZE PUSH1 0x4 PUSH2 0xAD5 JUMP JUMPDEST PUSH2 0x855 JUMP JUMPDEST PUSH2 0x17C PUSH2 0x1ED CALLDATASIZE PUSH1 0x4 PUSH2 0xAD5 JUMP JUMPDEST PUSH2 0x98D JUMP JUMPDEST CALLER PUSH1 0x0 SWAP1 DUP2 MSTORE PUSH1 0x1 PUSH1 0x20 MSTORE PUSH1 0x40 DUP2 KECCAK256 SLOAD PUSH1 0xFF AND PUSH2 0x256 JUMPI PUSH1 0x40 MLOAD PUSH3 0x461BCD PUSH1 0xE5 SHL DUP2 MSTORE PUSH1 0x20 PUSH1 0x4 DUP3 ADD MSTORE PUSH1 0x17 PUSH1 0x24 DUP3 ADD MSTORE PUSH32 0x4175646974416E63686F723A206E6F7420777269746572000000000000000000 PUSH1 0x44 DUP3 ADD MSTORE PUSH1 0x64 ADD JUMPDEST PUSH1 0x40 MLOAD DUP1 SWAP2 SUB SWAP1 REVERT JUMPDEST DUP5 DUP5 LT ISZERO PUSH2 0x29F JUMPI PUSH1 0x40 MLOAD PUSH3 0x461BCD PUSH1 0xE5 SHL DUP2 MSTORE PUSH1 0x20 PUSH1 0x4 DUP3 ADD MSTORE PUSH1 0x16 PUSH1 0x24 DUP3 ADD MSTORE PUSH22 0x4175646974416E63686F723A206261642072616E6765 PUSH1 0x50 SHL PUSH1 0x44 DUP3 ADD MSTORE PUSH1 0x64 ADD PUSH2 0x24D JUMP JUMPDEST DUP3 PUSH2 0x2EC JUMPI PUSH1 0x40 MLOAD PUSH3 0x461BCD PUSH1 0xE5 SHL DUP2 MSTORE PUSH1 0x20 PUSH1 0x4 DUP3 ADD MSTORE PUSH1 0x1C PUSH1 0x24 DUP3 ADD MSTORE PUSH32 0x4175646974416E63686F723A20656D70747920636861696E4861736800000000 PUSH1 0x44 DUP3 ADD MSTORE PUSH1 0x64 ADD PUSH2 0x24D JUMP JUMPDEST PUSH1 0x2 SLOAD ISZERO PUSH2 0x390 JUMPI PUSH1 0x2 DUP1 SLOAD PUSH2 0x304 SWAP1 PUSH1 0x1 SWAP1 PUSH2 0xB1B JUMP JUMPDEST DUP2 SLOAD DUP2 LT PUSH2 0x314 JUMPI PUSH2 0x314 PUSH2 0xB2E JUMP JUMPDEST SWAP1 PUSH1 0x0 MSTORE PUSH1 0x20 PUSH1 0x0 KECCAK256 SWAP1 PUSH1 0x5 MUL ADD PUSH1 0x0 ADD SLOAD PUSH1 0x1 PUSH2 0x332 SWAP2 SWAP1 PUSH2 0xB44 JUMP JUMPDEST DUP6 EQ PUSH2 0x390 JUMPI PUSH1 0x40 MLOAD PUSH3 0x461BCD PUSH1 0xE5 SHL DUP2 MSTORE PUSH1 0x20 PUSH1 0x4 DUP3 ADD MSTORE PUSH1 0x27 PUSH1 0x24 DUP3 ADD MSTORE PUSH32 0x4175646974416E63686F723A206E6F6E2D636F6E746967756F75732066726F6D PUSH1 0x44 DUP3 ADD MSTORE PUSH7 0x109B1BD8DAD259 PUSH1 0xCA SHL PUSH1 0x64 DUP3 ADD MSTORE PUSH1 0x84 ADD PUSH2 0x24D JUMP JUMPDEST POP PUSH1 0x2 DUP1 SLOAD PUSH1 0x40 DUP1 MLOAD PUSH1 0xC0 DUP2 ADD DUP3 MSTORE DUP7 DUP2 MSTORE PUSH1 0x20 DUP1 DUP3 ADD DUP10 DUP2 MSTORE DUP3 DUP5 ADD DUP9 DUP2 MSTORE PUSH1 0x60 DUP1 DUP6 ADD DUP10 DUP2 MSTORE PUSH8 0xFFFFFFFFFFFFFFFF TIMESTAMP DUP2 AND PUSH1 0x80 DUP9 ADD SWAP1 DUP2 MSTORE CALLER PUSH1 0xA0 DUP10 ADD DUP2 DUP2 MSTORE PUSH1 0x1 DUP13 ADD DUP14 SSTORE PUSH1 0x0 SWAP13 SWAP1 SWAP13 MSTORE SWAP8 MLOAD PUSH1 0x5 DUP12 MUL PUSH32 0x405787FA12A823E0F2B7631CC41B3BA8828B3321CA811111FA75CD3AA3BB5ACE DUP2 ADD SWAP2 SWAP1 SWAP2 SSTORE SWAP6 MLOAD PUSH32 0x405787FA12A823E0F2B7631CC41B3BA8828B3321CA811111FA75CD3AA3BB5ACF DUP8 ADD SSTORE SWAP4 MLOAD PUSH32 0x405787FA12A823E0F2B7631CC41B3BA8828B3321CA811111FA75CD3AA3BB5AD0 DUP7 ADD SSTORE SWAP1 MLOAD PUSH32 0x405787FA12A823E0F2B7631CC41B3BA8828B3321CA811111FA75CD3AA3BB5AD1 DUP6 ADD SSTORE SWAP2 MLOAD PUSH32 0x405787FA12A823E0F2B7631CC41B3BA8828B3321CA811111FA75CD3AA3BB5AD2 SWAP1 SWAP4 ADD DUP1 SLOAD SWAP9 MLOAD PUSH1 0x1 PUSH1 0x1 PUSH1 0xA0 SHL SUB AND PUSH1 0x1 PUSH1 0x40 SHL MUL PUSH1 0x1 PUSH1 0x1 PUSH1 0xE0 SHL SUB NOT SWAP1 SWAP10 AND SWAP4 SWAP1 SWAP3 AND SWAP3 SWAP1 SWAP3 OR SWAP7 SWAP1 SWAP7 OR SWAP1 SWAP6 SSTORE DUP3 MLOAD DUP8 DUP2 MSTORE SWAP1 DUP2 ADD DUP7 SWAP1 MSTORE SWAP2 DUP3 ADD MSTORE SWAP1 SWAP2 DUP6 SWAP2 DUP8 SWAP2 DUP5 SWAP2 PUSH32 0x95F0D07DB6F8B0E1AF81D5D9DCB7F175AF87E8AB80D66CE28A9966F31AE3ECB9 SWAP2 ADD PUSH1 0x40 MLOAD DUP1 SWAP2 SUB SWAP1 LOG4 SWAP5 SWAP4 POP POP POP POP JUMP JUMPDEST PUSH1 0x2 SLOAD PUSH1 0x0 SWAP1 DUP4 LT PUSH2 0x530 JUMPI POP PUSH1 0x0 PUSH2 0x55A JUMP JUMPDEST DUP2 PUSH1 0x2 DUP5 DUP2 SLOAD DUP2 LT PUSH2 0x544 JUMPI PUSH2 0x544 PUSH2 0xB2E JUMP JUMPDEST SWAP1 PUSH1 0x0 MSTORE PUSH1 0x20 PUSH1 0x0 KECCAK256 SWAP1 PUSH1 0x5 MUL ADD PUSH1 0x2 ADD SLOAD EQ SWAP1 POP JUMPDEST SWAP3 SWAP2 POP POP JUMP JUMPDEST PUSH1 0x40 DUP1 MLOAD PUSH1 0xC0 DUP2 ADD DUP3 MSTORE PUSH1 0x0 DUP1 DUP3 MSTORE PUSH1 0x20 DUP3 ADD DUP2 SWAP1 MSTORE SWAP2 DUP2 ADD DUP3 SWAP1 MSTORE PUSH1 0x60 DUP2 ADD DUP3 SWAP1 MSTORE PUSH1 0x80 DUP2 ADD DUP3 SWAP1 MSTORE PUSH1 0xA0 DUP2 ADD SWAP2 SWAP1 SWAP2 MSTORE PUSH1 0x2 SLOAD PUSH2 0x5E1 JUMPI PUSH1 0x40 MLOAD PUSH3 0x461BCD PUSH1 0xE5 SHL DUP2 MSTORE PUSH1 0x20 PUSH1 0x4 DUP3 ADD MSTORE PUSH1 0x17 PUSH1 0x24 DUP3 ADD MSTORE PUSH32 0x4175646974416E63686F723A206E6F20616E63686F7273000000000000000000 PUSH1 0x44 DUP3 ADD MSTORE PUSH1 0x64 ADD PUSH2 0x24D JUMP JUMPDEST PUSH1 0x2 DUP1 SLOAD PUSH2 0x5F1 SWAP1 PUSH1 0x1 SWAP1 PUSH2 0xB1B JUMP JUMPDEST DUP2 SLOAD DUP2 LT PUSH2 0x601 JUMPI PUSH2 0x601 PUSH2 0xB2E JUMP JUMPDEST PUSH1 0x0 SWAP2 DUP3 MSTORE PUSH1 0x20 SWAP2 DUP3 SWAP1 KECCAK256 PUSH1 0x40 DUP1 MLOAD PUSH1 0xC0 DUP2 ADD DUP3 MSTORE PUSH1 0x5 SWAP1 SWAP4 MUL SWAP1 SWAP2 ADD DUP1 SLOAD DUP4 MSTORE PUSH1 0x1 DUP2 ADD SLOAD SWAP4 DUP4 ADD SWAP4 SWAP1 SWAP4 MSTORE PUSH1 0x2 DUP4 ADD SLOAD SWAP1 DUP3 ADD MSTORE PUSH1 0x3 DUP3 ADD SLOAD PUSH1 0x60 DUP3 ADD MSTORE PUSH1 0x4 SWAP1 SWAP2 ADD SLOAD PUSH8 0xFFFFFFFFFFFFFFFF DUP2 AND PUSH1 0x80 DUP4 ADD MSTORE PUSH1 0x1 PUSH1 0x1 PUSH1 0xA0 SHL SUB PUSH1 0x1 PUSH1 0x40 SHL SWAP1 SWAP2 DIV AND PUSH1 0xA0 DUP3 ADD MSTORE SWAP2 SWAP1 POP JUMP JUMPDEST PUSH1 0x40 DUP1 MLOAD PUSH1 0xC0 DUP2 ADD DUP3 MSTORE PUSH1 0x0 DUP1 DUP3 MSTORE PUSH1 0x20 DUP3 ADD DUP2 SWAP1 MSTORE SWAP2 DUP2 ADD DUP3 SWAP1 MSTORE PUSH1 0x60 DUP2 ADD DUP3 SWAP1 MSTORE PUSH1 0x80 DUP2 ADD DUP3 SWAP1 MSTORE PUSH1 0xA0 DUP2 ADD SWAP2 SWAP1 SWAP2 MSTORE PUSH1 0x2 SLOAD DUP3 LT PUSH2 0x6F5 JUMPI PUSH1 0x40 MLOAD PUSH3 0x461BCD PUSH1 0xE5 SHL DUP2 MSTORE PUSH1 0x20 PUSH1 0x4 DUP3 ADD MSTORE PUSH1 0x19 PUSH1 0x24 DUP3 ADD MSTORE PUSH32 0x4175646974416E63686F723A206F7574206F662072616E676500000000000000 PUSH1 0x44 DUP3 ADD MSTORE PUSH1 0x64 ADD PUSH2 0x24D JUMP JUMPDEST PUSH1 0x2 DUP3 DUP2 SLOAD DUP2 LT PUSH2 0x708 JUMPI PUSH2 0x708 PUSH2 0xB2E JUMP JUMPDEST PUSH1 0x0 SWAP2 DUP3 MSTORE PUSH1 0x20 SWAP2 DUP3 SWAP1 KECCAK256 PUSH1 0x40 DUP1 MLOAD PUSH1 0xC0 DUP2 ADD DUP3 MSTORE PUSH1 0x5 SWAP1 SWAP4 MUL SWAP1 SWAP2 ADD DUP1 SLOAD DUP4 MSTORE PUSH1 0x1 DUP2 ADD SLOAD SWAP4 DUP4 ADD SWAP4 SWAP1 SWAP4 MSTORE PUSH1 0x2 DUP4 ADD SLOAD SWAP1 DUP3 ADD MSTORE PUSH1 0x3 DUP3 ADD SLOAD PUSH1 0x60 DUP3 ADD MSTORE PUSH1 0x4 SWAP1 SWAP2 ADD SLOAD PUSH8 0xFFFFFFFFFFFFFFFF DUP2 AND PUSH1 0x80 DUP4 ADD MSTORE PUSH1 0x1 PUSH1 0x1 PUSH1 0xA0 SHL SUB PUSH1 0x1 PUSH1 0x40 SHL SWAP1 SWAP2 DIV AND PUSH1 0xA0 DUP3 ADD MSTORE SWAP3 SWAP2 POP POP JUMP JUMPDEST PUSH1 0x0 SLOAD PUSH1 0x1 PUSH1 0x1 PUSH1 0xA0 SHL SUB AND CALLER EQ PUSH2 0x7A4 JUMPI PUSH1 0x40 MLOAD PUSH3 0x461BCD PUSH1 0xE5 SHL DUP2 MSTORE PUSH1 0x4 ADD PUSH2 0x24D SWAP1 PUSH2 0xB57 JUMP JUMPDEST PUSH1 0x1 PUSH1 0x1 PUSH1 0xA0 SHL SUB DUP2 AND PUSH1 0x0 SWAP1 DUP2 MSTORE PUSH1 0x1 PUSH1 0x20 MSTORE PUSH1 0x40 SWAP1 KECCAK256 SLOAD PUSH1 0xFF AND PUSH2 0x80C JUMPI PUSH1 0x40 MLOAD PUSH3 0x461BCD PUSH1 0xE5 SHL DUP2 MSTORE PUSH1 0x20 PUSH1 0x4 DUP3 ADD MSTORE PUSH1 0x19 PUSH1 0x24 DUP3 ADD MSTORE PUSH32 0x4175646974416E63686F723A206E6F7420612077726974657200000000000000 PUSH1 0x44 DUP3 ADD MSTORE PUSH1 0x64 ADD PUSH2 0x24D JUMP JUMPDEST PUSH1 0x1 PUSH1 0x1 PUSH1 0xA0 SHL SUB DUP2 AND PUSH1 0x0 DUP2 DUP2 MSTORE PUSH1 0x1 PUSH1 0x20 MSTORE PUSH1 0x40 DUP1 DUP3 KECCAK256 DUP1 SLOAD PUSH1 0xFF NOT AND SWAP1 SSTORE MLOAD PUSH32 0x86E5BBCEDA94081C32220D685F37CC4E3EA7BB0BE2DFBF0CB703579505A5390E SWAP2 SWAP1 LOG2 POP JUMP JUMPDEST PUSH1 0x0 SLOAD PUSH1 0x1 PUSH1 0x1 PUSH1 0xA0 SHL SUB AND CALLER EQ PUSH2 0x87F JUMPI PUSH1 0x40 MLOAD PUSH3 0x461BCD PUSH1 0xE5 SHL DUP2 MSTORE PUSH1 0x4 ADD PUSH2 0x24D SWAP1 PUSH2 0xB57 JUMP JUMPDEST PUSH1 0x1 PUSH1 0x1 PUSH1 0xA0 SHL SUB DUP2 AND PUSH2 0x8D5 JUMPI PUSH1 0x40 MLOAD PUSH3 0x461BCD PUSH1 0xE5 SHL DUP2 MSTORE PUSH1 0x20 PUSH1 0x4 DUP3 ADD MSTORE PUSH1 0x18 PUSH1 0x24 DUP3 ADD MSTORE PUSH32 0x4175646974416E63686F723A207A65726F207772697465720000000000000000 PUSH1 0x44 DUP3 ADD MSTORE PUSH1 0x64 ADD PUSH2 0x24D JUMP JUMPDEST PUSH1 0x1 PUSH1 0x1 PUSH1 0xA0 SHL SUB DUP2 AND PUSH1 0x0 SWAP1 DUP2 MSTORE PUSH1 0x1 PUSH1 0x20 MSTORE PUSH1 0x40 SWAP1 KECCAK256 SLOAD PUSH1 0xFF AND ISZERO PUSH2 0x93E JUMPI PUSH1 0x40 MLOAD PUSH3 0x461BCD PUSH1 0xE5 SHL DUP2 MSTORE PUSH1 0x20 PUSH1 0x4 DUP3 ADD MSTORE PUSH1 0x1B PUSH1 0x24 DUP3 ADD MSTORE PUSH32 0x4175646974416E63686F723A20616C7265616479207772697465720000000000 PUSH1 0x44 DUP3 ADD MSTORE PUSH1 0x64 ADD PUSH2 0x24D JUMP JUMPDEST PUSH1 0x1 PUSH1 0x1 PUSH1 0xA0 SHL SUB DUP2 AND PUSH1 0x0 DUP2 DUP2 MSTORE PUSH1 0x1 PUSH1 0x20 DUP2 SWAP1 MSTORE PUSH1 0x40 DUP1 DUP4 KECCAK256 DUP1 SLOAD PUSH1 0xFF NOT AND SWAP1 SWAP3 OR SWAP1 SWAP2 SSTORE MLOAD PUSH32 0x6FF3AA2EA7B53070F6D9D07A445D338D89E8EDEF44250FFA8BE19F53910D4A2E SWAP2 SWAP1 LOG2 POP JUMP JUMPDEST PUSH1 0x0 SLOAD PUSH1 0x1 PUSH1 0x1 PUSH1 0xA0 SHL SUB AND CALLER EQ PUSH2 0x9B7 JUMPI PUSH1 0x40 MLOAD PUSH3 0x461BCD PUSH1 0xE5 SHL DUP2 MSTORE PUSH1 0x4 ADD PUSH2 0x24D SWAP1 PUSH2 0xB57 JUMP JUMPDEST PUSH1 0x1 PUSH1 0x1 PUSH1 0xA0 SHL SUB DUP2 AND PUSH2 0xA0D JUMPI PUSH1 0x40 MLOAD PUSH3 0x461BCD PUSH1 0xE5 SHL DUP2 MSTORE PUSH1 0x20 PUSH1 0x4 DUP3 ADD MSTORE PUSH1 0x17 PUSH1 0x24 DUP3 ADD MSTORE PUSH32 0x4175646974416E63686F723A207A65726F206F776E6572000000000000000000 PUSH1 0x44 DUP3 ADD MSTORE PUSH1 0x64 ADD PUSH2 0x24D JUMP JUMPDEST PUSH1 0x0 DUP1 SLOAD PUSH1 0x40 MLOAD PUSH1 0x1 PUSH1 0x1 PUSH1 0xA0 SHL SUB DUP1 DUP6 AND SWAP4 SWAP3 AND SWAP2 PUSH32 0x8BE0079C531659141344CD1FD0A4F28419497F9722A3DAAFE3B4186F6B6457E0 SWAP2 LOG3 PUSH1 0x0 DUP1 SLOAD PUSH1 0x1 PUSH1 0x1 PUSH1 0xA0 SHL SUB NOT AND PUSH1 0x1 PUSH1 0x1 PUSH1 0xA0 SHL SUB SWAP3 SWAP1 SWAP3 AND SWAP2 SWAP1 SWAP2 OR SWAP1 SSTORE JUMP JUMPDEST PUSH1 0x0 DUP1 PUSH1 0x0 DUP1 PUSH1 0x80 DUP6 DUP8 SUB SLT ISZERO PUSH2 0xA7E JUMPI PUSH1 0x0 DUP1 REVERT JUMPDEST POP POP DUP3 CALLDATALOAD SWAP5 PUSH1 0x20 DUP5 ADD CALLDATALOAD SWAP5 POP PUSH1 0x40 DUP5 ADD CALLDATALOAD SWAP4 PUSH1 0x60 ADD CALLDATALOAD SWAP3 POP SWAP1 POP JUMP JUMPDEST PUSH1 0x0 DUP1 PUSH1 0x40 DUP4 DUP6 SUB SLT ISZERO PUSH2 0xAAD JUMPI PUSH1 0x0 DUP1 REVERT JUMPDEST POP POP DUP1 CALLDATALOAD SWAP3 PUSH1 0x20 SWAP1 SWAP2 ADD CALLDATALOAD SWAP2 POP JUMP JUMPDEST PUSH1 0x0 PUSH1 0x20 DUP3 DUP5 SUB SLT ISZERO PUSH2 0xACE JUMPI PUSH1 0x0 DUP1 REVERT JUMPDEST POP CALLDATALOAD SWAP2 SWAP1 POP JUMP JUMPDEST PUSH1 0x0 PUSH1 0x20 DUP3 DUP5 SUB SLT ISZERO PUSH2 0xAE7 JUMPI PUSH1 0x0 DUP1 REVERT JUMPDEST DUP2 CALLDATALOAD PUSH1 0x1 PUSH1 0x1 PUSH1 0xA0 SHL SUB DUP2 AND DUP2 EQ PUSH2 0xAFE JUMPI PUSH1 0x0 DUP1 REVERT JUMPDEST SWAP4 SWAP3 POP POP POP JUMP JUMPDEST PUSH4 0x4E487B71 PUSH1 0xE0 SHL PUSH1 0x0 MSTORE PUSH1 0x11 PUSH1 0x4 MSTORE PUSH1 0x24 PUSH1 0x0 REVERT JUMPDEST DUP2 DUP2 SUB DUP2 DUP2 GT ISZERO PUSH2 0x55A JUMPI PUSH2 0x55A PUSH2 0xB05 JUMP JUMPDEST PUSH4 0x4E487B71 PUSH1 0xE0 SHL PUSH1 0x0 MSTORE PUSH1 0x32 PUSH1 0x4 MSTORE PUSH1 0x24 PUSH1 0x0 REVERT JUMPDEST DUP1 DUP3 ADD DUP1 DUP3 GT ISZERO PUSH2 0x55A JUMPI PUSH2 0x55A PUSH2 0xB05 JUMP JUMPDEST PUSH1 0x20 DUP1 DUP3 MSTORE PUSH1 0x16 SWAP1 DUP3 ADD MSTORE PUSH22 0x20BAB234BA20B731B437B91D103737BA1037BBB732B9 PUSH1 0x51 SHL PUSH1 0x40 DUP3 ADD MSTORE PUSH1 0x60 ADD SWAP1 JUMP INVALID LOG2 PUSH5 0x6970667358 0x22 SLT KECCAK256 PUSH28 0x87553EE00FD553C0C86E1A6F9F12E420E5BA78B0668766EAE9490A7A DUP2 DELEGATECALL 0xFB PUSH5 0x736F6C6343 STOP ADDMOD XOR STOP CALLER "},"methodIdentifiers":{"addWriter(address)":"da2824a8","anchorCount()":"34f96c8c","commitAnchor(uint256,uint256,bytes32,bytes32)":"1cc2ad13","getAnchor(uint256)":"4c7df18f","latestAnchor()":"245c88d8","owner()":"8da5cb5b","removeWriter(address)":"5356dddc","transferOwnership(address)":"f2fde38b","verify(uint256,bytes32)":"1d97ce31","writers(address)":"8e7e80a2"}}}}}